:100000000C9446000C945D000C945D000C945D0013
:100010000C945D000C945D000C945D000C945D00EC
:100020000C945D000C945D000C945D000C945D00DC
:100030000C945D000C945D000C945D000C945D00CC
:100040000C945D000C945D000C945D000C945D00BC
:100050000C945D000C945D000C945D000C945D00AC
:100060000C945D000C945D000C945D000C945D009C
:100070000C945D000C945D000C945D000C945D008C
:100080000C945D000C945D000C945D0011241FBE67
:10009000CFEFD0E4DEBFCDBF11E0A0E0B1E0E6E6F7
:1000A000F6E100E00BBF02C007900D92AA31B10744
:1000B000D9F70E9491050C94310B0C940000CF935A
:1000C000DF9300D0CDB7DEB79A83898389819A8187
:1000D000892B11F400C006C089819A810197F1F73C
:1000E0009A83898300000F900F90DF91CF9108953C
:1000F000CF93DF93CDB7DEB785E290E025E230E025
:10010000F90120812460FC01208300C085E290E099
:1001100025E230E0F90120812B7FFC0120830000E3
:10012000DF91CF910895CF93DF9300D0CDB7DEB7A5
:1001300089836A838A81882351F085E290E025E2F1
:1001400030E0F90120812160FC01208309C085E2B3
:1001500090E025E230E0F90120812E7FFC01208330
:1001600085E290E025E230E0F90120812D7FFC015D
:1001700020838AE290E02AE230E0F90120812860C1
:10018000FC0120838AE290E02AE230E0F90120813C
:100190002061FC0120838AE290E02AE230E0F9014C
:1001A00020812062FC0120838AE290E02AE230E094
:1001B000F90120812064FC0120838BE290E02BE296
:1001C00030E0F90120812F7BFC0120838BE290E05D
:1001D0002BE230E0F90120812F7DFC0120838BE2AE
:1001E00090E02BE230E0F90120812F7EFC0120839A
:1001F0008BE290E02BE230E0F9012081277FFC01C7
:100200002083898188234CF48BE290E02BE230E05C
:10021000F90120812064FC0120838981882F90E0EE
:1002200080749927892B49F08BE290E02BE230E033
:10023000F90120812062FC0120838981882F90E0D0
:1002400080729927892B49F08BE290E02BE230E015
:10025000F90120812061FC0120838981882F90E0B1
:1002600080719927892B49F08BE290E02BE230E0F6
:10027000F90120812860FC0120830E9478008BE234
:1002800090E02BE230E0F90120812F7BFC012083FC
:100290008BE290E02BE230E0F90120812F7DFC0120
:1002A00020838BE290E02BE230E0F90120812F7E69
:1002B000FC0120838BE290E02BE230E0F901208109
:1002C000277FFC0120838981882F90E088709927FF
:1002D000892B49F08BE290E02BE230E0F90120819C
:1002E0002064FC0120838981882F90E08470992705
:1002F000892B49F08BE290E02BE230E0F90120817C
:100300002062FC0120838981882F90E082709927E8
:10031000892B49F08BE290E02BE230E0F90120815B
:100320002061FC0120838981882F90E081709927CA
:10033000892B49F08BE290E02BE230E0F90120813B
:100340002860FC0120830E9478008BE290E02BE281
:1003500030E0F90120812860FC0120838BE290E0ED
:100360002BE230E0F90120812061FC0120838BE247
:1003700090E02BE230E0F90120812062FC01208333
:100380008BE290E02BE230E0F90120812064FC0157
:10039000208300000F900F90DF91CF910895CF93AD
:1003A000DF9300D0CDB7DEB78A838A81882351F0EE
:1003B00085E290E025E230E0F90120812160FC0136
:1003C000208309C085E290E025E230E0F901208138
:1003D0002E7FFC01208385E290E025E230E0F901E8
:1003E00020812260FC0120838AE290E02AE230E052
:1003F000F9012081277FFC0120838AE290E02AE234
:1004000030E0F90120812F7EFC0120838AE290E018
:100410002AE230E0F90120812F7DFC0120838AE26D
:1004200090E02AE230E0F90120812F7BFC0120835B
:1004300085E290E025E230E0F90120812460FC01B2
:10044000208300C0198289E290E0FC018081882F1E
:1004500090E088709927892B19F0898180618983C0
:1004600089E290E0FC018081882F90E080719927DB
:10047000892B19F089818062898389E290E0FC01EF
:100480008081882F90E080729927892B19F08981CB
:100490008064898389E290E0FC018081882F90E06C
:1004A00080749927892B19F089818068898385E276
:1004B00090E025E230E0F90120812B7FFC012083D0
:1004C00000C085E290E025E230E0F901208124605F
:1004D000FC01208300C089E290E0FC018081882F2C
:1004E00090E088709927892B19F089818160898330
:1004F00089E290E0FC018081882F90E0807199274B
:10050000892B19F089818260898389E290E0FC015E
:100510008081882F90E080729927892B19F089813A
:100520008460898389E290E0FC018081882F90E0DB
:1005300080749927892B19F089818860898385E2E5
:1005400090E025E230E0F90120812B7FFC0120833F
:1005500089810F900F90DF91CF9108951F93CF93D2
:10056000DF93CDB7DEB780E00E94CF01182F812F37
:100570008823CCF384E090E00E945F0080E00E943A
:10058000CF01DF91CF911F9108951F93CF93DF93F8
:100590001F92CDB7DEB789838981843110F410E4CE
:1005A00011C08981803428F08981843510F414E1E8
:1005B00009C08981843128F08981803410F414E5E0
:1005C00001C010E080E8810F0E94EC0200000F9053
:1005D000DF91CF911F910895CF93DF931F92CDB7F5
:1005E000DEB789830E94AE0260E089810E94930099
:1005F00000000F90DF91CF910895CF93DF931F926A
:10060000CDB7DEB789830E94AE0261E089810E9486
:10061000930000000F90DF91CF910895CF93DF9367
:1006200000D0CDB7DEB789836A838A81882329F415
:10063000898180580E94EC0214C08A81813029F49B
:10064000898180540E94EC020CC08A81823029F496
:1006500089818C560E94EC0204C089818C520E94D0
:10066000EC0200000F900F90DF91CF910895CF938F
:10067000DF93CDB7DEB70E94AE02882F90E0DF9106
:10068000CF910895CF93DF93CDB7DEB781E00E947D
:10069000EC020000DF91CF910895CF93DF93CDB7A7
:1006A000DEB782E00E94EC020000DF91CF91089556
:1006B000CF93DF9300D0CDB7DEB78A830E94AE021E
:1006C00089838A818A3021F489810E94C50204C00D
:1006D0008A8161E00E94930000000F900F90DF91EB
:1006E000CF9108951F93CF93DF9300D0CDB7DEB79E
:1006F0009A83898303C0812F0E94580389819A813C
:100700009C012F5F3F4F3A832983FC011081112305
:1007100091F700000F900F90DF91CF911F910895F6
:100720001F93CF93DF9300D000D01F92CDB7DEB7D9
:100730009D838C8303C0812F0E9458038C819D81EF
:100740009C012F5F3F4F3D832C839A83898389814E
:100750009A81FC0184918B838B81182F112359F787
:1007600000000F900F900F900F900F90DF91CF919E
:100770001F910895CF93DF931F92CDB7DEB7898382
:1007800084E290E024E230E0F90120812160FC0164
:10079000208384E290E024E230E0F90120812260AD
:1007A000FC01208384E290E024E230E0F901208122
:1007B0002460FC0120838AE290E02AE230E0F90123
:1007C00020812860FC0120838AE290E02AE230E068
:1007D000F90120812061FC0120838AE290E02AE275
:1007E00030E0F90120812062FC0120838AE290E060
:1007F0002AE230E0F90120812064FC01208380E0BE
:100800009DE70E945F008BE290E02BE230E0F9016F
:1008100020812061FC0120838BE290E02BE230E01C
:10082000F90120812860FC0120830E94780080E08B
:1008300097E20E945F000E94780080E890E00E94AA
:100840005F000E94780080E890E00E945F008BE2E9
:1008500090E02BE230E0F9012081277FFC0120832A
:100860000E94780080E890E00E945F0088E20E9489
:10087000EC0288E00E94EC020E94420386E00E94A3
:10088000EC0289810E94EC0200000F90DF91CF9171
:100890000895CF93DF93CDB7DEB781E00E94700457
:1008A0000000DF91CF910895CF93DF93CDB7DEB7EE
:1008B00084E690E00E94140588E30E94700486E0BC
:1008C0000E9470048FE00E94700481E00E94700416
:1008D0008AE090E00E9414050000DF91CF91089516
:1008E000CF93DF931F92CDB7DEB789838BE290E081
:1008F0002BE230E0F90120812F7BFC01208388E28C
:1009000090E02981FC0120838BE290E02BE230E033
:10091000F90120812068FC01208300008BE290E037
:100920002BE230E0F90120812F77FC01208382E067
:1009300090E00E94140500000F90DF91CF91089580
:10094000CF93DF931F92CDB7DEB789838BE290E020
:100950002BE230E0F90120812064FC01208388E251
:1009600090E02981FC0120838BE290E02BE230E0D3
:10097000F90120812068FC01208300008BE290E0D7
:100980002BE230E0F90120812F77FC01208381E008
:1009900090E00E94140500000F90DF91CF91089520
:1009A000CF93DF9300D000D0CDB7DEB78A837C83AE
:1009B0006B830E9449048A81898311C0898191E0F7
:1009C000980F99830E94FD048B819C819C012F5F6D
:1009D0003F4F3C832B83FC0180810E94A0048B81CC
:1009E0009C81FC018081882349F700000F900F90C3
:1009F0000F900F90DF91CF910895CF93DF931F92C7
:100A0000CDB7DEB789838981813128F48981815806
:100A10000E94700404C0898181550E947004000006
:100A20000F90DF91CF910895CF93DF9300D000D046
:100A300000D0CDB7DEB79E838D831A82198213C092
:100A40001C821B8206C000008B819C8101969C83C6
:100A50008B838B819C8187309340ACF389819A8111
:100A600001969A83898329813A818D819E812817F5
:100A7000390734F3000026960FB6F894DEBF0FBE98
:100A8000CDBFDF91CF910895CF93DF93CDB7DEB780
:100A900081E290E0FC0110828AE790E027E8FC0107
:100AA00020838CE790E020E4FC0120830000DF91AC
:100AB000CF910895CF93DF931F92CDB7DEB789838F
:100AC0008CE790E0298127702064FC0120838AE76D
:100AD00090E02AE730E0F90120812064FC012083C6
:100AE00000008AE790E0FC018081882F90E080710F
:100AF0009927892BB1F38AE790E02AE730E0F901E2
:100B000020812061FC01208381E090E00E94140597
:100B100088E790E0FC01808191810F90DF91CF9177
:100B20000895CF93DF93CDB7DEB763970FB6F894F0
:100B3000DEBF0FBECDBF87E290E02FEFFC01208328
:100B400088E290E0FC0110828AE290E02FEFFC0145
:100B500020838BE290E0FC0110820E9454040E94EA
:100B600044051A82198280E00E945A05092E000C61
:100B7000AA0BBB0BBC01CD010E944807DC01CB01D5
:100B800026EF38E24CE950E4BC01CD010E94D407C5
:100B9000DC01CB01BC01CD010E941007DC01CB01BF
:100BA0009C838B838B819C81092E000CAA0BBB0B31
:100BB000BC01CD010E944807DC01CB0120E030E000
:100BC00040E251E4BC01CD010E949E06DC01CB0154
:100BD000BC01CD010E941007DC01CB019C838B83FB
:100BE00089819A8103978CF58C818F938B818F9368
:100BF00080E091E0892F8F9380E091E08F93CE0188
:100C00000596292F2F938F930E9448080F900F90DD
:100C10000F900F900F900F90CE010596BC0181E0D0
:100C20000E94D00488EE93E00E941405CE01059640
:100C30004FE050E060E070E00E944108CE01059670
:100C4000BC0181E00E94D0046CC089819A81079721
:100C50000CF067C08B819C81459784F51F928AE2D6
:100C60008F9380E191E0892F8F9380E191E08F93C2
:100C7000CE010596292F2F938F930E9448080F903D
:100C80000F900F900F900F900F90CE010596BC0122
:100C900081E00E94D00488EE93E00E941405CE010A
:100CA00005964FE050E060E070E00E944108CE0100
:100CB0000596BC0181E00E94D00433C08B819C81E9
:100CC00046977CF11F928BE28F9380E191E0892F10
:100CD0008F9380E191E08F93CE010596292F2F937A
:100CE0008F930E9448080F900F900F900F900F90D5
:100CF0000F90CE010596BC0181E00E94D00488EEE1
:100D000093E00E941405CE0105964FE050E060E0AC
:100D100070E00E944108CE010596BC0181E00E946E
:100D2000D00489819A8101969A83898389819A81E5
:100D300008970CF418CF1A82198215CF0E94B206B8
:100D40000C949A070E94930758F00E948C0740F079
:100D500029F45F3F29F00C94830751110C94CE07BE
:100D60000C9489070E94AB0768F39923B1F35523CC
:100D700091F3951B550BBB27AA27621773078407AE
:100D800038F09F5F5F4F220F331F441FAA1FA9F344
:100D900035D00E2E3AF0E0E832D091505040E69532
:100DA000001CCAF72BD0FE2F29D0660F771F881F93
:100DB000BB1F261737074807AB07B0E809F0BB0B86
:100DC000802DBF01FF2793585F4F3AF09E3F51059A
:100DD00078F00C9483070C94CE075F3FE4F3983EC1
:100DE000D4F3869577956795B795F7959F5FC9F783
:100DF000880F911D9695879597F90895E1E0660F04
:100E0000771F881FBB1F621773078407BA0720F07C
:100E1000621B730B840BBA0BEE1F88F7E0950895E5
:100E20000E9417076894B1110C94CE0708950E9490
:100E3000B30788F09F5798F0B92F9927B751B0F0B2
:100E4000E1F0660F771F881F991F1AF0BA95C9F74E
:100E500014C0B13091F00E94CD07B1E008950C9418
:100E6000CD07672F782F8827B85F39F0B93FCCF3CB
:100E7000869577956795B395D9F73EF490958095CB
:100E8000709561957F4F8F4F9F4F0895E89409C0EB
:100E900097FB3EF490958095709561957F4F8F4FAD
:100EA0009F4F9923A9F0F92F96E9BB279395F695C3
:100EB000879577956795B795F111F8CFFAF4BB0F41
:100EC00011F460FF1BC06F5F7F4F8F4F9F4F16C0A5
:100ED000882311F096E911C0772321F09EE8872F2F
:100EE000762F05C0662371F096E8862F70E060E0EB
:100EF0002AF09A95660F771F881FDAF7880F969564
:100F0000879597F9089597F99F6780E870E060E00A
:100F100008959FEF80EC089500240A941616170692
:100F200018060906089500240A94121613061406DA
:100F300005060895092E0394000C11F4882352F03D
:100F4000BB0F40F4BF2B11F460FF04C06F5F7F4FF5
:100F50008F4F9F4F089557FD9058440F551F59F0DC
:100F60005F3F71F04795880F97FB991F61F09F3F96
:100F700079F087950895121613061406551FF2CFBF
:100F80004695F1DF08C0161617061806991FF1CF0F
:100F900086957105610508940895E894BB27662736
:100FA0007727CB0197F908950E94E7070C949A07D9
:100FB0000E948C0738F00E94930720F0952311F0CF
:100FC0000C9483070C94890711240C94CE070E947B
:100FD000AB0770F3959FC1F3950F50E0551F629FCB
:100FE000F001729FBB27F00DB11D639FAA27F00D82
:100FF000B11DAA1F649F6627B00DA11D661F829FA9
:101000002227B00DA11D621F739FB00DA11D621F8D
:10101000839FA00D611D221F749F3327A00D611DAA
:10102000231F849F600D211D822F762F6A2F11248C
:101030009F5750409AF0F1F088234AF0EE0FFF1FBF
:10104000BB1F661F771F881F91505040A9F79E3F16
:10105000510580F00C9483070C94CE075F3FE4F3B6
:10106000983ED4F3869577956795B795F795E7956C
:101070009F5FC1F7FE2B880F911D9695879597F975
:101080000895DC0101C06D9341505040E0F7089590
:101090000F931F93CF93DF93CDB7DEB72E970FB685
:1010A000F894DEBF0FBECDBF0D891E8986E08C830C
:1010B0001A8309838FEF9FE79E838D83AE01475E7E
:1010C0005F4F6F89788DCE0101960E947708EF817E
:1010D000F885E00FF11F10822E960FB6F894DEBF50
:1010E0000FBECDBFDF91CF911F910F9108952F9229
:1010F0003F924F925F926F927F928F929F92AF92A8
:10110000BF92CF92DF92EF92FF920F931F93CF93F4
:10111000DF93CDB7DEB72B970FB6F894DEBF0FBEC7
:10112000CDBF6C017B018A01FC011782168283818D
:1011300081FFCCC1CE0101963C01F6019381F701FC
:1011400093FD859193FF81917F01882309F4BAC1B2
:10115000853239F493FD859193FF81917F0185322A
:1011600029F4B60190E00E94970AE7CF912C212C38
:10117000312CFFE1F315D8F08B3279F038F480325E
:1011800079F08332A1F4232D20611DC08D3261F0EE
:10119000803369F4232D216016C0832D8260382EA0
:1011A000E32DE4603E2E2AC0F32DF8601DC037FC0D
:1011B0002DC020ED280F2A3040F08E32B9F436FCD5
:1011C00081C1232D2064322E19C036FE06C08AE06C
:1011D000989E200D1124922E11C0EAE02E9E200D23
:1011E0001124222EF32DF0623F2E08C08C3621F4FC
:1011F000832D8068382E02C0883641F4F70193FDB4
:10120000859193FF81917F018111B3CF982F9F7DAD
:101210009554933028F40C5F1F4F9FE399830DC0C2
:10122000833631F0833771F0833509F059C021C01E
:10123000F801808189830E5F1F4F88248394912C4D
:10124000530113C02801F2E04F0E511CF801A08099
:10125000B18036FE03C0692D70E002C06FEF7FEFF2
:10126000C5010E948C0A4C018201F32DFF773F2EAD
:1012700016C0280122E0420E511CF801A080B18066
:1012800036FE03C0692D70E002C06FEF7FEFC5012D
:101290000E94810A4C01F32DF0683F2E820133FC3D
:1012A0001BC0822D90E088169906B0F4B60180E24A
:1012B00090E00E94970A2A94F4CFF50137FC8591BB
:1012C00037FE81915F01B60190E00E94970A2110DC
:1012D0002A9421E0821A91088114910471F7E8C0E0
:1012E000843611F0893641F5F80137FE07C0608178
:1012F0007181828193810C5F1F4F08C06081718171
:10130000072E000C880B990B0E5F1F4FF32DFF76F5
:101310003F2E97FF09C090958095709561957F4FFE
:101320008F4F9F4FF0683F2E2AE030E0A3010E94CC
:10133000D30A882E861845C0853731F4232D2F7E99
:10134000B22E2AE030E025C0932D997FB92E8F363A
:10135000C1F018F4883579F0B5C0803719F08837B6
:1013600021F0B0C0E92FE061BE2EB4FE0DC0FB2D10
:10137000F460BF2E09C034FE0AC0292F2660B22EA9
:1013800006C028E030E005C020E130E002C020E1E6
:1013900032E0F801B7FE07C06081718182819381DC
:1013A0000C5F1F4F06C06081718180E090E00E5F8E
:1013B0001F4FA3010E94D30A882E8618FB2DFF77AA
:1013C0003F2E36FE0DC0232D2E7FA22E891458F4F9
:1013D00034FE0BC032FC09C0832D8E7EA82E05C0C2
:1013E000B82CA32C03C0B82C01C0B92CA4FE0FC08C
:1013F000FE01E80DF11D8081803321F49A2D997E44
:10140000A92E09C0A2FE06C0B394B39404C08A2DCD
:10141000867809F0B394A3FC11C0A0FE06C0B214F4
:1014200088F4280C922C9B180EC0B21460F4B601FC
:1014300080E290E00E94970AB394F7CFB21418F4B8
:101440002B1802C0982C212CA4FE10C0B60180E3FA
:1014500090E00E94970AA2FE17C0A1FC03C088E793
:1014600090E002C088E590E0B6010CC08A2D867835
:1014700059F0A1FE02C08BE201C080E2A7FC8DE220
:10148000B60190E00E94970A891438F4B60180E30F
:1014900090E00E94970A9A94F7CF8A94F301E80D9E
:1014A000F11D8081B60190E00E94970A8110F5CF6E
:1014B000222009F442CEB60180E290E00E94970A11
:1014C0002A94F6CFF6018681978102C08FEF9FEFB5
:1014D0002B960FB6F894DEBF0FBECDBFDF91CF9134
:1014E0001F910F91FF90EF90DF90CF90BF90AF9042
:1014F0009F908F907F906F905F904F903F902F9034
:101500000895FC010590615070400110D8F7809556
:1015100090958E0F9F1F0895FC01615070400190BF
:101520000110D8F7809590958E0F9F1F08950F9307
:101530001F93CF93DF93FB01238121FD03C08FEF26
:101540009FEF2CC022FF16C0468157812481358130
:101550004217530744F4A081B1819D012F5F3F4F93
:10156000318320838C93268137812F5F3F4F3783D0
:10157000268314C08B01EC01FB010084F185E02D72
:101580000995892BE1F6D80116968D919C911797B4
:10159000019617969C938E931697CE01DF91CF916B
:1015A0001F910F910895FA01AA27283051F1203197
:1015B00081F1E8946F936E7F6E5F7F4F8F4F9F4FE7
:1015C000AF4FB1E03ED0B4E03CD0670F781F891F29
:1015D0009A1FA11D680F791F8A1F911DA11D6A0FF7
:1015E000711D811D911DA11D20D009F468943F91AA
:1015F0002AE0269F11243019305D3193DEF6CF01A9
:101600000895462F4770405D4193B3E00FD0C9F76E
:10161000F6CF462F4F70405D4A3318F0495D31FDDB
:101620004052419302D0A9F7EACFB4E0A69597952E
:10163000879577956795BA95C9F700976105710504
:1016400008959B01AC010A2E06945795479537954E
:101650002795BA95C9F7620F731F841F951FA01DA8
:061660000895F894FFCF8D
:1016660054656D70657261747572653A2025640003
:0A16760049636F6E3A2025630000FF
:00000001FF
