:100000000C9446000C945D000C945D000C945D0013
:100010000C945D000C945D000C945D000C945D00EC
:100020000C945D000C945D000C945D000C945D00DC
:100030000C945D000C945D000C945D000C945D00CC
:100040000C945D000C945D000C945D000C945D00BC
:100050000C945D000C945D000C945D000C945D00AC
:100060000C945D000C945D000C945D000C945D009C
:100070000C945D000C945D000C945D000C945D008C
:100080000C945D000C945D000C945D0011241FBE67
:10009000CFEFD0E4DEBFCDBF11E0A0E0B1E0E6EAF3
:1000A000F9E000E00BBF02C007900D92A031B1074C
:1000B000D9F70E94A7010C94D1040C940000CF93AF
:1000C000DF93CDB7DEB781E00E9486000000DF91AC
:1000D000CF910895CF93DF93CDB7DEB784E690E05C
:1000E0000E942A0188E30E94860086E00E94860022
:1000F0008FE00E94860081E00E9486008AE090E006
:100100000E942A010000DF91CF910895CF93DF93E1
:100110001F92CDB7DEB789838BE290E02BE230E00F
:10012000F90120812F7BFC01208388E290E0298166
:10013000FC0120838BE290E02BE230E0F90120818A
:100140002068FC01208300008BE290E02BE230E08D
:10015000F90120812F77FC01208382E090E00E944A
:100160002A0100000F90DF91CF910895CF93DF9384
:100170001F92CDB7DEB789838BE290E02BE230E0AF
:10018000F90120812064FC01208388E290E029812C
:10019000FC0120838BE290E02BE230E0F90120812A
:1001A0002068FC01208300008BE290E02BE230E02D
:1001B000F90120812F77FC01208381E090E00E94EB
:1001C0002A0100000F90DF91CF910895CF93DF9324
:1001D00000D000D0CDB7DEB78A837C836B830E94CA
:1001E0005F008A81898311C0898191E0980F99838A
:1001F0000E9413018B819C819C012F5F3F4F3C83A8
:100200002B83FC0180810E94B6008B819C81FC01C4
:100210008081882349F700000F900F900F900F9076
:10022000DF91CF910895CF93DF931F92CDB7DEB7C3
:1002300089838981813128F4898181580E948600CF
:1002400004C0898181550E94860000000F90DF91D3
:10025000CF910895CF93DF9300D000D000D0CDB7D9
:10026000DEB79E838D831A82198213C01C821B8283
:1002700006C000008B819C8101969C838B838B81BF
:100280009C8187309340ACF389819A8101969A834F
:10029000898329813A818D819E812817390734F31A
:1002A000000026960FB6F894DEBF0FBECDBFDF91DB
:1002B000CF910895CF93DF93CDB7DEB781E290E081
:1002C000FC0110828AE790E027E8FC0120838CE79C
:1002D00090E020E4FC0120830000DF91CF9108959D
:1002E000CF93DF931F92CDB7DEB789838CE790E081
:1002F000298127702064FC0120838AE790E02AE7A7
:1003000030E0F90120812064FC01208300008AE7AD
:1003100090E0FC018081882F90E080719927892BE3
:10032000B1F38AE790E02AE730E0F901208120610B
:10033000FC01208381E090E00E942A0188E790E0A0
:10034000FC01808191810F90DF91CF910895CF932F
:10035000DF93CDB7DEB72C970FB6F894DEBF0FBE94
:10036000CDBF87E290E02FEFFC01208388E290E090
:10037000FC0110828AE290E02FEFFC0120838BE2E7
:1003800090E0FC0110820E946A008AE090E09A836B
:1003900089838A818F9389818F9380E091E0892F6F
:1003A0008F9380E091E08F93CE010396292F2F93B6
:1003B0008F930E94E8010F900F900F900F900F9075
:1003C0000F90CE010396BC0181E00E94E600FFCFB2
:1003D0000F931F93CF93DF93CDB7DEB72E970FB652
:1003E000F894DEBF0FBECDBF0D891E8986E08C83D9
:1003F0001A8309838FEF9FE79E838D83AE01475E4B
:100400005F4F6F89788DCE0101960E941702EF81B0
:10041000F885E00FF11F10822E960FB6F894DEBF1C
:100420000FBECDBFDF91CF911F910F9108952F92F5
:100430003F924F925F926F927F928F929F92AF9274
:10044000BF92CF92DF92EF92FF920F931F93CF93C1
:10045000DF93CDB7DEB72B970FB6F894DEBF0FBE94
:10046000CDBF6C017B018A01FC011782168283815A
:1004700081FFCCC1CE0101963C01F6019381F701C9
:1004800093FD859193FF81917F01882309F4BAC17F
:10049000853239F493FD859193FF81917F018532F7
:1004A00029F4B60190E00E943704E7CF912C212C6B
:1004B000312CFFE1F315D8F08B3279F038F480322B
:1004C00079F08332A1F4232D20611DC08D3261F0BB
:1004D000803369F4232D216016C0832D8260382E6D
:1004E000E32DE4603E2E2AC0F32DF8601DC037FCDA
:1004F0002DC020ED280F2A3040F08E32B9F436FCA2
:1005000081C1232D2064322E19C036FE06C08AE038
:10051000989E200D1124922E11C0EAE02E9E200DEF
:100520001124222EF32DF0623F2E08C08C3621F4C8
:10053000832D8068382E02C0883641F4F70193FD80
:10054000859193FF81917F018111B3CF982F9F7D7A
:100550009554933028F40C5F1F4F9FE399830DC08F
:10056000833631F0833771F0833509F059C021C0EB
:10057000F801808189830E5F1F4F88248394912C1A
:10058000530113C02801F2E04F0E511CF801A08066
:10059000B18036FE03C0692D70E002C06FEF7FEFBF
:1005A000C5010E942C044C018201F32DFF773F2EE0
:1005B00016C0280122E0420E511CF801A080B18033
:1005C00036FE03C0692D70E002C06FEF7FEFC501FA
:1005D0000E9421044C01F32DF0683F2E820133FC70
:1005E0001BC0822D90E088169906B0F4B60180E217
:1005F00090E00E9437042A94F4CFF50137FC8591EE
:1006000037FE81915F01B60190E00E94370421100E
:100610002A9421E0821A91088114910471F7E8C0AC
:10062000843611F0893641F5F80137FE07C0608144
:100630007181828193810C5F1F4F08C0608171813D
:10064000072E000C880B990B0E5F1F4FF32DFF76C2
:100650003F2E97FF09C090958095709561957F4FCB
:100660008F4F9F4FF0683F2E2AE030E0A3010E9499
:100670007304882E861845C0853731F4232D2F7ECC
:10068000B22E2AE030E025C0932D997FB92E8F3607
:10069000C1F018F4883579F0B5C0803719F0883783
:1006A00021F0B0C0E92FE061BE2EB4FE0DC0FB2DDD
:1006B000F460BF2E09C034FE0AC0292F2660B22E76
:1006C00006C028E030E005C020E130E002C020E1B3
:1006D00032E0F801B7FE07C06081718182819381A9
:1006E0000C5F1F4F06C06081718180E090E00E5F5B
:1006F0001F4FA3010E947304882E8618FB2DFF77DD
:100700003F2E36FE0DC0232D2E7FA22E891458F4C5
:1007100034FE0BC032FC09C0832D8E7EA82E05C08E
:10072000B82CA32C03C0B82C01C0B92CA4FE0FC058
:10073000FE01E80DF11D8081803321F49A2D997E10
:10074000A92E09C0A2FE06C0B394B39404C08A2D9A
:10075000867809F0B394A3FC11C0A0FE06C0B214C1
:1007600088F4280C922C9B180EC0B21460F4B601C9
:1007700080E290E00E943704B394F7CFB21418F4EB
:100780002B1802C0982C212CA4FE10C0B60180E3C7
:1007900090E00E943704A2FE17C0A1FC03C088E7C6
:1007A00090E002C088E590E0B6010CC08A2D867802
:1007B00059F0A1FE02C08BE201C080E2A7FC8DE2ED
:1007C000B60190E00E943704891438F4B60180E342
:1007D00090E00E9437049A94F7CF8A94F301E80DD1
:1007E000F11D8081B60190E00E9437048110F5CFA1
:1007F000222009F442CEB60180E290E00E94370444
:100800002A94F6CFF6018681978102C08FEF9FEF81
:100810002B960FB6F894DEBF0FBECDBFDF91CF9100
:100820001F910F91FF90EF90DF90CF90BF90AF900E
:100830009F908F907F906F905F904F903F902F9000
:100840000895FC010590615070400110D8F7809523
:1008500090958E0F9F1F0895FC016150704001908C
:100860000110D8F7809590958E0F9F1F08950F93D4
:100870001F93CF93DF93FB01238121FD03C08FEFF3
:100880009FEF2CC022FF16C04681578124813581FD
:100890004217530744F4A081B1819D012F5F3F4F60
:1008A000318320838C93268137812F5F3F4F37839D
:1008B000268314C08B01EC01FB010084F185E02D3F
:1008C0000995892BE1F6D80116968D919C91179781
:1008D000019617969C938E931697CE01DF91CF9138
:1008E0001F910F910895FA01AA27283051F1203164
:1008F00081F1E8946F936E7F6E5F7F4F8F4F9F4FB4
:10090000AF4FB1E03ED0B4E03CD0670F781F891FF5
:100910009A1FA11D680F791F8A1F911DA11D6A0FC3
:10092000711D811D911DA11D20D009F468943F9176
:100930002AE0269F11243019305D3193DEF6CF0175
:100940000895462F4770405D4193B3E00FD0C9F73B
:10095000F6CF462F4F70405D4A3318F0495D31FDA8
:100960004052419302D0A9F7EACFB4E0A6959795FB
:10097000879577956795BA95C9F7009761057105D1
:1009800008959B01AC010A2E06945795479537951B
:100990002795BA95C9F7620F731F841F951FA01D75
:0609A0000895F894FFCF5A
:1009A60054656D70657261747572653A20256400D0
:00000001FF
